:020000040800F2
:1000000000000220C10F00080D0F0008150F0008A6
:100010001D0F0008250F00082D0F0008000000002C
:10002000000000000000000000000000350F000884
:10003000430F000800000000510F00085F0F000888
:10004000111000081110000811100008111000080C
:1000500011100008111000081110000811100008FC
:1000600011100008111000081110000811100008EC
:1000700011100008111000081110000811100008DC
:100080006D0F000811100008111000081110000871
:1000900011100008111000081110000811100008BC
:1000A00011100008111000081110000811100008AC
:1000B000111000081110000811100008111000089C
:1000C000111000081110000811100008111000088C
:1000D000111000081110000811100008111000087C
:1000E000111000081110000811100008111000086C
:1000F000111000081110000811100008111000085C
:10010000111000081110000811100008111000084B
:100110001110000811100008810F000811100008CC
:10012000111000081110000811100008111000082B
:10013000111000080000000000000000111000086D
:10014000111000081110000811100008111000080B
:1001500011100008111000081110000811100008FB
:1001600011100008111000081110000811100008EB
:100170001110000811100008111000080000000004
:100180000000000011100008000000000000000046
:10019000111000080000000000000000111000080D
:1001A0000000000000000000000000001110000826
:1001B000111000081110000811100008111000089B
:0401C0001110000812
:1001C40010B5054C237833B9044B13B10448AFF38D
:1001D40000800123237010BDBC100020000000002B
:1001E4008C43000808B5034B1BB103490348AFF324
:1001F400008008BD00000000C01000208C430008EF
:1002040053B94AB9002908BF00281CBF4FF0FF3179
:100214004FF0FF3000F06AB9ADF1080C6DE904CE7F
:1002240000F006F8DDF804E0DDE9022304B07047CD
:100234002DE9F047089D0C46002B4ED194468C4581
:100244008646B2FA82F262D94AB1C2F120039140E1
:1002540020FA03F30CFA02FC194300FA02FE4FEAF7
:100264001C471FFA8CF6B1FBF7F44FEA1E4307FB59
:10027400141143EA014304FB06F199420AD91CEB29
:10028400030304F1FF3080F01281994240F20F81A0
:10029400023C6344591A1FFA8EF3B1FBF7F007FBD3
:1002A400101143EA014300FB06F69E420AD91CEBF7
:1002B400030300F1FF3180F0FC809E4240F2F9809C
:1002C400634402389B1B40EA044000211DB1D34023
:1002D4000022C5E90032BDE8F0878B4205D90DB193
:1002E400C5E9000100210846F5E7B3FA83F10029C6
:1002F40046D1A34202D39042C0F0F080861A64EB48
:1003040003030120002DE6D0C5E90063E3E7002ADA
:1003140040F09080A1EB0C044FEA1C481FFA8CF7C4
:100324000121B4FBF8F64FEA1E4308FB164443EAE6
:10033400044307FB06F0984208D91CEB030306F1BB
:10034400FF3402D2984200F2CD8026461C1A1FFACE
:100354008EF3B4FBF8F008FB104443EA044300FBBB
:1003640007F79F4208D91CEB030300F1FF3402D2C4
:100374009F4200F2B0802046DB1B40EA0640A5E71E
:10038400C1F120068B4022FA06F71F4320FA06FC2F
:1003940004FA01F343EA0C03F44000FA01F8380CC0
:1003A4004FEA1349B4FBF0FE1FFA87FC00FB1E441E
:1003B40049EA04440EFB0CF9A14502FA01F20AD9F8
:1003C4003C190EF1FF3A80F08480A14540F281800F
:1003D400AEF1020E3C44A4EB09041FFA83F9B4FB0A
:1003E400F0F300FB134449EA044403FB0CFCA4456A
:1003F40007D93C1903F1FF3067D2A44565D9023B04
:100404003C4443EA0E40A0FB0293A4EB0C049C4240
:10041400CE469C4651D34ED055B1B8EB0E0364EB97
:100424000C0404FA06F6CB401E43CC40C5E9006434
:10043400002150E7C2F1200320FA03F10CFA02FC78
:1004440024FA03F394400C434FEA1C4800FA02FEDA
:100454001FFA8CF7B3FBF8F008FB1031230C43EAC6
:10046400014300FB07F1994208D91CEB030300F197
:10047400FF362CD299422AD9023863445B1AA4B2BB
:10048400B3FBF8F108FB113344EA034401FB07F31F
:10049400A34208D91CEB040401F1FF3613D2A34292
:1004A40011D902396444E41A41EA004139E70446A7
:1004B400F0E6084606E7C845AED2B9EB020E63EB98
:1004C400070C0138A8E73146EDE7034699E73046C3
:1004D400D4E7D6467FE7634402384DE70646234611
:1004E40008460FE7023E634430E700BF704700BF91
:1004F40080B582B000AF78600021786802F01EFFFA
:1005040000BF0837BD4680BD80B582B000AF7860BB
:100514007B681B4A93422ED11A4B1B68002B1DD0BB
:10052400194B1B68194AD35C00220021184800F0BB
:10053400C1FF154B1B680133134A1360124B1B6830
:1005440041F2AF02934216DD0F4B00221A600D4BAD
:1005540000221A600F4B01221A600CE00D4B1B683D
:10056400002B08D0002300220021094800F0A2FF3C
:10057400084B00221A6000BF0837BD4680BD00BF8B
:100584007C110020281200202412002000000020EA
:10059400D81000202C12002080B5ADF53E6D00AFC0
:1005A40000F036FD00F03CF900F0E8FA00F0C6FA7D
:1005B40000F096F900F0BEF900F08AFA00F02EFA85
:1005C4006423C7F8DC3B002387F8DB3B0023C7F830
:1005D400D43B00218C4800F0C0FE8C4802F05EFB46
:1005E400002300220021884800F064FF0C21884881
:1005F40002F014FC0121874801F01AFD0346C7F8F4
:10060400C03B00F06BFD0346C7F8BC3B97F8DB3BEF
:10061400022B2AD0022B42DC002B02D0012B10D05B
:100624003DE0D7F8C03B002B02D1012387F8DB3B28
:10063400794B01221A60764B1B684FF461721A647D
:1006440032E0D7F8C03B002B0AD1D7F8D43B002BBB
:1006540006D0022387F8DB3BD7F8BC3BC7F8D03B76
:100664006B4B1B6800221A641EE0D7F8BC2BD7F82A
:10067400D03BD31A41F28832934204DD0022042194
:10068400644801F0EDFCD7F8C03B002B0BD1D7F840
:10069400D43B002B07D0012387F8DB3B03E0012385
:1006A40087F8DB3B00E000BFD7F8BC2BD7F8DC3B76
:1006B4009A42C0F2A380D7F8BC3B6433C7F8DC3B52
:1006C4000023C7F8CC3B3FE097F8DB3B022B1BD061
:1006D400D7F8CC3B9B0003F53E633B44002203F870
:1006E4009C2CD7F8CC3B9B0003F53E633B44322261
:1006F40003F89B2CD7F8CC3B9B0003F53E633B44AB
:10070400002203F89A2C1AE0D7F8CC3B9B0003F59F
:100714003E633B44002203F89C2CD7F8CC3B9B005F
:1007240003F53E633B44002203F89B2CD7F8CC3BF3
:100734009B0003F53E633B44002203F89A2CD7F850
:10074400CC3B0133C7F8CC3BD7F8CC3B1D2BBBDDEE
:100754000023C7F8C83B46E00023C7F8C43B39E090
:10076400D7F8C83B9B0003F53E633B4453F89C2CED
:10077400D7F8C43BC3F1170322FA03F303F00103D0
:10078400002B11D0D7F8C82B13465B001344DB00B1
:100794001A46D7F8C43B1A4407F53E63A3F53E63F3
:1007A4000A2143F8221010E0D7F8C82B13465B0047
:1007B4001344DB001A46D7F8C43B1A4407F53E63DA
:1007C400A3F53E63052143F82210D7F8C43B013357
:1007D400C7F8C43BD7F8C43B172BC1DDD7F8C83BD7
:1007E4000133C7F8C83BD7F8C83B1D2BB4DD3A46E4
:1007F40040F2D1230021094802F0D8FBD7F8C03BCE
:10080400C7F8D43BF6E600BFD81000207C110020C6
:10081400341100200000024028120020EC100020B7
:1008240080B594B000AF07F11C03342200211846B0
:1008340003F07EFD07F1080300221A605A609A60F3
:10084400DA601A6100237B60234B1B6C224A43F05D
:1008540080531364204B1B6C03F080537B607B68D4
:1008640000233B601D4B1B6823F440431B4A43F4A5
:1008740080431360194B1B6803F440433B603B689F
:100884000223FB610123BB621023FB6200237B6311
:1008940007F11C03184601F013FF0346002B01D097
:1008A40000F0C8F90F23BB600023FB6000233B6109
:1008B40000237B610023BB6107F108030021184674
:1008C40001F0E8FB0346002B01D000F0B3F900BFB0
:1008D4005037BD4680BD00BF003802400070004064
:1008E40080B582B000AF3B4600221A605A600F4BBD
:1008F4000F4A1A600D4800F00EFD0346002B01D08C
:1009040000F098F900233B6000237B603B46002203
:100914001946064800F002FE0346002B01D000F001
:1009240089F900BF0837BD4680BD00BFD81000203C
:100934000074004080B58EB000AF07F12803002298
:100944001A605A609A60DA6007F1200300221A6084
:100954005A603B1D00221A605A609A60DA601A617C
:100964005A619A612C4B4FF080421A602A4B002244
:100974005A60294B00229A60274B1322DA60264BD7
:1009840000221A61244B00229A61234802F036F9AE
:100994000346002B01D000F04DF94FF48053BB62A5
:1009A40007F1280319461C4802F04CFF0346002BAC
:1009B40001D000F03FF9184802F0E0F90346002B9B
:1009C40001D000F037F900233B6200237B6207F17A
:1009D40020031946104803F01BFC0346002B01D0EA
:1009E40000F028F960237B600023BB600023FB60D8
:1009F40000237B613B1D00221946074802F060FE7C
:100A04000346002B01D000F015F9034800F01EFA4C
:100A140000BF3837BD4680BDEC10002080B58AB0D9
:100A240000AF07F1200300221A605A603B1D002228
:100A34001A605A609A60DA601A615A619A61224BAC
:100A4400224A1A60204B00225A601F4B00229A60EF
:100A54001D4B40F2E732DA601B4B00221A611A4B3D
:100A640000229A61184802F089F90346002B01D04C
:100A740000F0E0F800233B6200237B6207F12003CF
:100A84001946114803F0C4FB0346002B01D000F0C3
:100A9400D1F860237B600023BB600023FB6000234C
:100AA4007B613B1D0C221946074802F009FE0346F0
:100AB400002B01D000F0BEF8034800F0C7F900BFD6
:100AC4002837BD4680BD00BF34110020000C004013
:100AD40080B582B000AF3B4600221A605A60154BC5
:100AE400154A1A60134B00225A60124B00229A6076
:100AF400104B40F2CF72DA600E4B00229A610D481F
:100B040002F07CF80346002B01D000F093F8002398
:100B14003B6000237B603B461946064803F078FBA4
:100B24000346002B01D000F085F800BF0837BD460E
:100B340080BD00BF7C1100200010004080B582B051
:100B440000AF00237B600C4B1B6B0B4A43F4001378
:100B54001363094B1B6B03F400137B607B68002257
:100B64000021102000F0A1FB102000F0BAFB00BF10
:100B74000837BD4680BD00BF0038024080B588B04C
:100B840000AF07F10C0300221A605A609A60DA6021
:100B94001A610023BB60254B1B6B244A43F080037E
:100BA4001363224B1B6B03F08003BB60BB68002301
:100BB4007B601E4B1B6B1D4A43F0010313631B4BED
:100BC4001B6B03F001037B607B6800233B60174BC6
:100BD4001B6B164A43F002031363144B1B6B03F0A5
:100BE40002033B603B6801220421114801F038FAFA
:100BF4000323FB6000233B6100237B6107F10C03AB
:100C040019460B4801F080F80423FB6001233B6183
:100C140000237B610023BB6107F10C0319460448E0
:100C240001F072F800BF2037BD4680BD0038024095
:100C34000000024080B400AF72B600BF00BFFDE701
:100C440080B483B000AF00237B60104B5B6C0F4A11
:100C540043F4804353640D4B5B6C03F480437B602B
:100C64007B6800233B60094B1B6C084A43F08053AC
:100C74001364064B1B6C03F080533B603B6800BF5E
:100C84000C37BD465DF8047B704700BF0038024056
:100C940080B58AB000AF786007F1140300221A60AF
:100CA4005A609A60DA601A617B681B681B4A934237
:100CB4002FD100233B611A4B1B6C194A43F000539C
:100CC4001364174B1B6C03F000533B613B69002317
:100CD400FB60134B1B6B124A43F001031363104B6D
:100CE4001B6B03F00103FB60FB6810237B61032390
:100CF400BB610023FB6107F114031946094801F0A5
:100D040003F800220021362000F0CFFA362000F04C
:100D1400E8FA00BF2837BD4680BD00BF007400401C
:100D2400003802400000024080B584B000AF786013
:100D34007B681B68B3F1804F3FD10023FB602E4BCF
:100D44001B6C2D4A43F0010313642B4B1B6C03F003
:100D54000103FB60FB68294B294A1A60274B4FF0BB
:100D6400C0625A60254B40229A60244B0022DA600C
:100D7400224B4FF480621A61204B4FF480525A6127
:100D84001E4B4FF480429A611C4B0022DA611B4BCC
:100D94004FF440321A62194B00225A62174800F08D
:100DA40021FC0346002B01D0FFF744FF7B68134A64
:100DB4005A62124A7B6893631AE07B681B68114A83
:100DC400934215D10023BB600B4B1B6C0A4A43F0C2
:100DD40010031364084B1B6C03F01003BB60BB6867
:100DE40000220021362000F060FA362000F079FA63
:100DF40000BF1037BD4680BD00380240C41100203A
:100E0400886002400010004080B485B000AF786074
:100E14007B681B680B4A93420DD10023FB600A4B8D
:100E24001B6C094A43F008031364074B1B6C03F063
:100E34000803FB60FB6800BF1437BD465DF8047B04
:100E4400704700BF000C00400038024080B58AB0F3
:100E540000AF786007F1140300221A605A609A60A8
:100E6400DA601A617B681B68B3F1804F1ED10023DE
:100E74003B61224B1B6B214A43F0010313631F4B5D
:100E84001B6B03F001033B613B6920237B6102235D
:100E9400BB610023FB6100233B6201237B6207F1FA
:100EA40014031946164800F02FFF22E07B681B68E4
:100EB400144A93421DD10023FB60104B1B6B0F4A55
:100EC40043F0010313630D4B1B6B03F00103FB6041
:100ED400FB6808237B610223BB610023FB610023C1
:100EE4003B6202237B6207F114031946044800F0B5
:100EF4000BFF00BF2837BD4680BD00BF003802404D
:100F040000000240000C004080B400AF00BFFDE7C9
:100F140080B400AF00BFFDE780B400AF00BFFDE7C1
:100F240080B400AF00BFFDE780B400AF00BFFDE7B1
:100F340080B400AF00BFBD465DF8047B704780B449
:100F440000AF00BFBD465DF8047B704780B400AFBE
:100F540000BFBD465DF8047B704780B500AF00F06C
:100F6400A9F800BF80BD000080B500AF024800F0C2
:100F740061FC00BF80BD00BFC411002080B500AF7C
:100F8400034800F041FA034802F0AAFA00BF80BD0A
:100F9400D81000207C11002080B400AF064BD3F899
:100FA4008830054A43F47003C2F8883000BFBD4658
:100FB4005DF8047B704700BF00ED00E0DFF834D03B
:100FC400FFF7EAFF0C480D490D4A002302E0D4580C
:100FD400C4500433C4188C42F9D30A4A0A4C00237F
:100FE40001E013600432A242FBD303F0A9F9FFF736
:100FF400D3FA70470000022000000020BC1000203B
:10100400CC430008BC10002034120020FEE700008E
:1010140080B500AF0E4B1B680D4A43F40073136098
:101024000B4B1B680A4A43F480631360084B1B682C
:10103400074A43F480731360032000F02BF90F2058
:1010440000F008F8FFF7FCFD0023184680BD00BF40
:10105400003C024080B582B000AF7860124B1A6841
:10106400124B1B7819464FF47A73B3FBF1F3B2FBBE
:10107400F3F3184600F043F90346002B01D0012393
:101084000EE07B680F2B0AD8002279684FF0FF30FE
:1010940000F00BF9064A7B681360002300E001238B
:1010A40018460837BD4680BDB0100020B810002097
:1010B400B410002080B400AF064B1B781A46064BD0
:1010C4001B681344044A136000BFBD465DF8047BEB
:1010D400704700BFB81000203012002080B400AF69
:1010E400034B1B681846BD465DF8047B704700BF80
:1010F4003012002080B485B000AF78607B6803F0C4
:101104000703FB600C4BDB68BB60BA684FF6FF0358
:101114001340BB60FB681A02BB68134343F0BF6310
:1011240043F40033BB60044ABB68D36000BF143788
:10113400BD465DF8047B704700ED00E080B400AF6D
:10114400044BDB681B0A03F007031846BD465DF831
:10115400047B704700ED00E080B483B000AF034629
:10116400FB7197F90730002B0BDBFB7903F01F02AF
:10117400074997F907305B09012000FA02F241F8A8
:10118400232000BF0C37BD465DF8047B704700BFC9
:1011940000E100E080B483B000AF03463960FB7126
:1011A40097F90730002B0ADB3B68DAB20C4997F950
:1011B40007301201D2B20B4483F800230AE03B68E3
:1011C400DAB20849FB7903F00F03043B1201D2B2EF
:1011D4000B441A7600BF0C37BD465DF8047B70479C
:1011E40000E100E000ED00E080B489B000AFF860F9
:1011F400B9607A60FB6803F00703FB61FB69C3F124
:101204000703042B28BF0423BB61FB690433062BAB
:1012140002D9FB69033B00E000237B614FF0FF32FE
:10122400BB6902FA03F3DA43BB681A407B699A404C
:101234004FF0FF317B6901FA03F3D9437B680B401C
:10124400134318462437BD465DF8047B70470000FD
:1012540080B582B000AF78607B68013BB3F1807FDA
:1012640001D301230FE00A4A7B68013B53600F213D
:101274004FF0FF30FFF78EFF054B00229A60044BBE
:1012840007221A60002318460837BD4680BD00BFF8
:1012940010E000E080B582B000AF78607868FFF7B6
:1012A40029FF00BF0837BD4680BD80B586B000AFBA
:1012B4000346B9607A60FB7300237B61FFF73EFF4E
:1012C40078617A68B9687869FFF78EFF024697F902
:1012D4000F3011461846FFF75DFF00BF1837BD46B3
:1012E40080BD80B582B000AF0346FB7197F907302B
:1012F4001846FFF731FF00BF0837BD4680BD80B5F3
:1013040082B000AF78607868FFF7A2FF0346184602
:101314000837BD4680BD80B582B000AF78607B6879
:10132400002B01D1012314E07B681B79DBB2002B75
:1013340005D17B6800225A717868FFF7A9FC7B68A5
:1013440002221A717B6800221A617B6801221A71D9
:10135400002318460837BD4680BD80B483B000AF73
:10136400786039607B68002B01D1012346E07B68FB
:101374005B79012B01D1022340E07B6801225A7181
:101384007B6802221A717B681B6819683B6803F04A
:10139400100301229A407B681B680A431A603B6869
:1013A400002B0FD17B681B681B6803F03C033C2BAC
:1013B4001DD17B681B685A687B681B6842F0010278
:1013C4005A6014E07B681B681B6803F470123B6866
:1013D40003F010033C2101FA03F39A4207D17B681E
:1013E4001B685A687B681B6842F002025A607B687B
:1013F40001221A717B6800225A71002318460C37A7
:10140400BD465DF8047B704780B584B000AF78605A
:101414007B681B681B68FB607B681B685B6BBB603D
:10142400FB6803F40053002B1DD0BB6803F4005386
:10143400002B18D07B6804221A717B681B6943F067
:1014440001027B681A617B681B684FF400525A637F
:101454007B681B681A687B681B6822F480521A60D8
:10146400786800F051F8FB6803F00053002B1DD09E
:10147400BB6803F00053002B18D07B6804221A7158
:101484007B681B6943F002027B681A617B681B68F6
:101494004FF000525A637B681B681A687B681B68AC
:1014A40022F080521A60786800F091F800BF10377B
:1014B400BD4680BD80B487B000AFF860B9607A6083
:1014C4003B6000237B61FB68002B01D1012315E005
:1014D400FB681B687B61BB68002B05D17A697B685C
:1014E400134408337B6104E07A697B681344143342
:1014F4007B617B691A463B681360002318461C37DE
:10150400BD465DF8047B704780B483B000AF78605B
:1015140000BF0C37BD465DF8047B704780B489B0CA
:1015240000AFF860B9607A600023FB77FB68002B9A
:1015340002D0BB68002B01D1012342E0FB685B7938
:10154400012B01D102233CE0FB6801225A71FB68A4
:1015540002221A71FB681B681B68BB617B6803F07D
:10156400100340F6FE7202FA03F3DB43BA69134038
:10157400BB61BB681A68BB685B6813437B617B68AB
:1015840003F010037A6902FA03F3BA691343BB61E7
:10159400FB681B68BA691A60FB681B6819687B687A
:1015A40003F01003C02202FA03F3DA43FB681B685A
:1015B4000A401A60FB6801221A71FB6800225A7102
:1015C400FB7F18462437BD465DF8047B704780B422
:1015D40083B000AF786000BF0C37BD465DF8047B74
:1015E4007047000080B586B000AF786000237B614F
:1015F400FFF774FD38617B68002B01D1012399E06A
:101604007B68022283F835207B68002283F834202B
:101614007B681B681A687B681B6822F001021A60E9
:101624000FE0FFF75BFD02463B69D31A052B08D98F
:101634007B6820225A657B68032283F835200323C4
:1016440078E07B681B681B6803F00103002BE8D17A
:101654007B681B681B687B617A69384B13407B612C
:101664007B685A687B689B681A437B68DB681A430B
:101674007B681B691A437B685B691A437B689B69B7
:101684001A437B68DB691A437B681B6A13437A69D4
:1016940013437B617B685B6A042B07D17B68DA6A3E
:1016A4007B681B6B13437A6913437B617B681B68FC
:1016B4007A691A607B681B685B697B617B6923F0CC
:1016C40007037B617B685B6A7A6913437B617B6890
:1016D4005B6A042B17D17B689B6A7A6913437B612D
:1016E4007B68DB6A002B0ED0786800F091FA034621
:1016F400002B08D07B6840225A657B68012283F85E
:101704003520012316E07B681B687A695A61786882
:1017140000F048FA0346FB607B68DB6D3F229A4089
:10172400FB689A607B6800225A657B68012283F813
:101734003520002318461837BD4680BD3F8010F081
:1017440080B586B000AFF860B9607A603B60002372
:10175400FB75FB689B6D3B61FB6893F83430012B90
:1017640001D1022340E0FB68012283F83420FB68A6
:1017740093F83530DBB2012B2FD1FB68022283F8BA
:101784003520FB6800225A653B687A68B968F868B6
:1017940000F0DAF9FB68DB6D3F229A403B699A60FE
:1017A400FB681B681A68FB681B6842F016021A6023
:1017B400FB681B6C002B07D0FB681B681A68FB686E
:1017C4001B6842F008021A60FB681B681A68FB6811
:1017D4001B6842F001021A6005E0FB68002283F8EE
:1017E40034200223FB75FB7D18461837BD4680BDA7
:1017F40080B483B000AF78607B6893F83530DBB297
:10180400022B04D07B6880225A6501230CE07B689C
:10181400052283F835207B681B681A687B681B687F
:1018240022F001021A60002318460C37BD465DF809
:10183400047B704780B586B000AF78600023BB603E
:101844008E4B1B688E4AA2FB03239B0A7B617B6839
:101854009B6D3B613B691B68FB607B68DB6D082209
:101864009A40FB681340002B1AD07B681B681B68E6
:1018740003F00403002B13D07B681B681A687B6891
:101884001B6822F004021A607B68DB6D08229A4010
:101894003B699A607B685B6D43F001027B685A6523
:1018A4007B68DB6D01229A40FB681340002B12D049
:1018B4007B681B685B6903F08003002B0BD07B689B
:1018C400DB6D01229A403B699A607B685B6D43F053
:1018D40002027B685A657B68DB6D04229A40FB68D0
:1018E4001340002B12D07B681B681B6803F00203B3
:1018F400002B0BD07B68DB6D04229A403B699A6015
:101904007B685B6D43F004027B685A657B68DB6D22
:1019140010229A40FB681340002B43D07B681B685D
:101924001B6803F00803002B3CD07B68DB6D10229E
:101934009A403B699A607B681B681B6803F48023A8
:10194400002B18D07B681B681B6803F40023002B52
:1019540008D17B681B6C002B24D07B681B6C7868D7
:1019640098471FE07B689B6C002B1BD07B689B6CAB
:101974007868984716E07B681B681B6803F48073DB
:10198400002B07D17B681B681A687B681B6822F0F0
:1019940008021A607B681B6C002B03D07B681B6CED
:1019A400786898477B68DB6D20229A40FB68134077
:1019B400002B00F08F807B681B681B6803F010030A
:1019C400002B00F087807B68DB6D20229A403B6906
:1019D4009A607B6893F83530DBB2052B36D17B688F
:1019E4001B681A687B681B6822F016021A607B6801
:1019F4001B685A697B681B6822F080025A617B6805
:101A04001B6C002B03D17B689B6C002B07D07B687D
:101A14001B681A687B681B6822F008021A607B68DE
:101A2400DB6D3F229A403B699A607B68012283F810
:101A340035207B68002283F834207B681B6D002BE3
:101A44007ED07B681B6D7868984779E07B681B685B
:101A54001B6803F48023002B1DD07B681B681B6864
:101A640003F40023002B0DD17B685B6C002B31D079
:101A74007B685B6C786898472CE000BFB01000204E
:101A8400B5814E1B7B68DB6B002B23D07B68DB6B43
:101A9400786898471EE07B681B681B6803F48073B2
:101AA400002B0FD17B681B681A687B681B6822F0C7
:101AB40010021A607B68012283F835207B680022BB
:101AC40083F834207B68DB6B002B03D07B68DB6BF3
:101AD400786898477B685B6D002B32D07B685B6DC0
:101AE40003F00103002B22D07B68052283F8352004
:101AF4007B681B681A687B681B6822F001021A6005
:101B0400BB680133BB607A699A4207D37B681B6860
:101B14001B6803F00103002BF2D100E000BF7B68D7
:101B2400012283F835207B68002283F834207B6807
:101B3400DB6C002B05D07B68DB6C7868984700E091
:101B440000BF1837BD4680BD80B485B000AFF860D3
:101B5400B9607A603B60FB681B681A68FB681B68A5
:101B640022F480221A60FB681B683A685A60FB689A
:101B74009B68402B08D1FB681B687A689A60FB68F5
:101B84001B68BA68DA6007E0FB681B68BA689A6089
:101B9400FB681B687A68DA6000BF1437BD465DF8DD
:101BA400047B704780B485B000AF78607B681B68A5
:101BB400DBB2103B144AA2FB03231B09FB60134A4C
:101BC400FB6813441B781A467B68DA65FB68032BB1
:101BD40009D97B681B6823F47F7323F003031A1D60
:101BE4007B689A6507E07B681B6823F47F7323F0A6
:101BF40003037A6893657B689B6D18461437BD466A
:101C04005DF8047B704700BFABAAAAAAB4430008DE
:101C140080B485B000AF78600023FB737B689B6A57
:101C2400BB607B689B69002B1FD1BB68032B56D814
:101C340001A252F823F000BF4D1C00085F1C0008ED
:101C44004D1C0008E31C00087B68DB6A03F080730A
:101C5400002B46D00123FB7343E07B68DB6AB3F1BE
:101C6400C07F40D10123FB733DE07B689B69B3F5E2
:101C7400005F21D1BB68032B37D801A252F823F0AF
:101C8400951C00089B1C0008951C0008AD1C00084E
:101C94000123FB7330E07B68DB6A03F08073002B65
:101CA40025D00123FB7322E07B68DB6AB3F1C07F9C
:101CB4001FD10123FB731CE0BB68022B03D9BB6853
:101CC400032B03D018E00123FB7315E07B68DB6A68
:101CD40003F08073002B0ED00123FB730BE000BFD5
:101CE4000AE000BF08E000BF06E000BF04E000BF58
:101CF40002E000BF00E000BFFB7B18461437BD467E
:101D04005DF8047B704700BF80B489B000AF786091
:101D1400396000237B6100233B610023BB61002306
:101D2400FB6165E10122FB6902FA03F37B613B6815
:101D34001B687A6913403B613A697B699A4240F0B7
:101D440054813B685B6803F00303012B05D03B68B7
:101D54005B6803F00303022B30D17B689B68BB6193
:101D6400FB695B00032202FA03F3DB43BA69134005
:101D7400BB613B68DA68FB695B0002FA03F3BA698A
:101D84001343BB617B68BA699A607B685B68BB611B
:101D94000122FB6902FA03F3DB43BA691340BB6116
:101DA4003B685B681B0903F00102FB6902FA03F359
:101DB400BA691343BB617B68BA695A603B685B6864
:101DC40003F00303032B17D07B68DB68BB61FB695B
:101DD4005B00032202FA03F3DB43BA691340BB61DD
:101DE4003B689A68FB695B0002FA03F3BA69134320
:101DF400BB617B68BA69DA603B685B6803F0030324
:101E0400022B23D1FB69DA087B68083253F82230AD
:101E1400BB61FB6903F007039B000F2202FA03F383
:101E2400DB43BA691340BB613B681A69FB6903F081
:101E340007039B0002FA03F3BA691343BB61FB690E
:101E4400DA087B680832B96943F822107B681B689A
:101E5400BB61FB695B00032202FA03F3DB43BA694B
:101E64001340BB613B685B6803F00302FB695B00E2
:101E740002FA03F3BA691343BB617B68BA691A6057
:101E84003B685B6803F44033002B00F0AE80002312
:101E9400FB605D4B5B6C5C4A43F4804353645A4B78
:101EA4005B6C03F48043FB60FB68584AFB699B0846
:101EB400023352F82330BB61FB6903F003039B0038
:101EC4000F2202FA03F3DB43BA691340BB617B6858
:101ED4004F4A934225D07B684E4A93421FD07B6879
:101EE4004D4A934219D07B684C4A934213D07B6885
:101EF4004B4A93420DD07B684A4A934207D07B6891
:101F0400494A934201D106230CE007230AE0052342
:101F140008E0042306E0032304E0022302E0012393
:101F240000E00023FA6902F0030292009340BA69C8
:101F34001343BB613549FB699B080233BA6941F815
:101F440023203A4B9B68BB613B69DB43BA6913406E
:101F5400BB613B685B6803F48013002B03D0BA6950
:101F64003B691343BB61314ABB6993602F4BDB6808
:101F7400BB613B69DB43BA691340BB613B685B6887
:101F840003F40013002B03D0BA693B691343BB610C
:101F9400264ABB69D360254B5B68BB613B69DB4365
:101FA400BA691340BB613B685B6803F40033002BE0
:101FB40003D0BA693B691343BB611C4ABB695360D4
:101FC4001A4B1B68BB613B69DB43BA691340BB61B5
:101FD4003B685B6803F48033002B03D0BA693B6928
:101FE4001343BB61114ABB691360FB690133FB6195
:101FF400FB690F2B7FF696AE00BF00BF2437BD46AA
:102004005DF8047B704700BF00380240003801408F
:10201400000002400004024000080240000C02409C
:10202400001002400014024000180240003C01402D
:1020340080B485B000AF78600B467B807B681A69FA
:102044007B881340002B02D00123FB7301E00023A3
:10205400FB73FB7B18461437BD465DF8047B704761
:1020640080B483B000AF78600B467B8013467B70EE
:102074007B78002B03D07A887B689A6103E07B88A5
:102084001A047B689A6100BF0C37BD465DF8047B77
:102094007047000080B584B000AF786039607B6819
:1020A400002B01D10123CCE0684B1B6803F00F0324
:1020B4003A689A420CD9654B3A68D2B21A70634BAB
:1020C4001B6803F00F033A689A4201D00123B8E079
:1020D4007B681B6803F00203002B20D07B681B681D
:1020E40003F00403002B05D0594B9B68584A43F472
:1020F400E05393607B681B6803F00803002B05D052
:10210400534B9B68524A43F460439360504B9B6823
:1021140023F0F0027B689B684D4913438B607B6816
:102124001B6803F00103002B44D07B685B68012B20
:1021340007D1474B1B6803F40033002B19D101234B
:102144007FE07B685B68022B03D07B685B68032BB2
:1021540007D13F4B1B6803F00073002B09D1012307
:102164006FE03B4B1B6803F00203002B01D10123FA
:1021740067E0374B9B6823F003027B685B68344954
:1021840013438B60FEF7AAFFF8600AE0FEF7A6FF90
:102194000246FB68D31A41F28832934201D90323E1
:1021A4004FE02B4B9B6803F00C027B685B689B0041
:1021B4009A42EBD1254B1B6803F00F033A689A420D
:1021C4000CD2224B3A68D2B21A70204B1B6803F02F
:1021D4000F033A689A4201D0012332E07B681B68FE
:1021E40003F00403002B08D0194B9B6823F4E0523E
:1021F4007B68DB68164913438B607B681B6803F0BC
:102204000803002B09D0124B9B6823F460427B68BF
:102214001B69DB000E4913438B6000F021F8024672
:102224000B4B9B681B0903F00F030A49CB5C22FA92
:1022340003F3094A1360094B1B681846FEF70AFFAB
:10224400002318461037BD4680BD00BF003C024045
:1022540000380240A4430008B0100020B41000204D
:102264002DE9B04FAEB000AF0023C7F8AC30002367
:10227400C7F8B4300023C7F8A8300023C7F8A43047
:102284000023C7F8B030CB4B9B6803F00C030C2B36
:1022940000F2068201A252F823F000BFD522000802
:1022A400A5260008A5260008A5260008DD220008AA
:1022B400A5260008A5260008A5260008E522000892
:1022C400A5260008A5260008A5260008D524000890
:1022D400B94BC7F8B030E7E1B84BC7F8B030E3E129
:1022E400B44B5B6803F03F03C7F8AC30B14B5B6899
:1022F40003F48003002B71D0AE4B5B689B09002272
:10230400C7F89830C7F89C20D7F89830C3F308036F
:10231400C7F890300023C7F89430D7E92445224603
:102324002B464FF000004FF00001590141EAD26101
:10233400500102460B462146511A3964294663EB83
:1023440001037B644FF000024FF00003D7E91089CA
:1023540049468B01414643EA916341468A0141461D
:10236400511AB963494663EB0103FB634FF0000262
:102374004FF00003D7E90E894946CB00414643EAB2
:1023840051734146CA0010461946034622469B181B
:102394003B632B460A4642EB03037B634FF0000288
:1023A4004FF00003D7E90C4529464B02214643EA86
:1023B400D15321464A0210461946D7F8AC300022C0
:1023C400C7F88830C7F88C20D7E92223FDF718FF17
:1023D40002460B461346C7F8B43067E0754B5B689A
:1023E4009B090022C7F88030C7F88420D7F88030D2
:1023F400C3F30803BB670023FB67D7E91E452246E6
:102404002B464FF000004FF00001590141EAD26120
:10241400500102460B462146511AB962294663EB24
:102424000103FB624FF000024FF00003D7E90A8971
:1024340049468B01414643EA916341468A0141463C
:10244400B2EB010A494663EB010B4FF000024FF077
:1024540000034FEACB0343EA5A734FEACA02924697
:102464009B4623461AEB03033B622B464BEB0303C9
:102474007B624FF000024FF00003D7E9084529467C
:102484008B02214643EA915321468A02104619469B
:10249400D7F8AC3000223B677A67D7E91C23FDF7F5
:1024A400AFFE02460B461346C7F8B430414B5B6897
:1024B4001B0C03F0030301335B00C7F8A830D7F803
:1024C400B420D7F8A830B2FBF3F3C7F8B030EBE090
:1024D400384B5B6803F03F03C7F8AC30354B5B689F
:1024E40003F48003002B6BD0324B5B689B09002202
:1024F400BB66FA66BB6EC3F308033B6600237B66C8
:10250400D7E9184522462B464FF000004FF0000152
:10251400590141EAD261500102460B462146511A43
:10252400B961294663EB0103FB614FF000024FF0F0
:102534000003D7E906AB59468B01514643EA916340
:1025440051468A015146B2EB0108594663EB010931
:102554004FF000024FF000034FEAC90343EA5873F7
:102564004FEAC80290469946234618EB03033B61A1
:102574002B4649EB03037B614FF000024FF000034D
:10258400D7E9044529464B02214643EAD153214663
:102594004A0210461946D7F8AC300022BB65FA65EA
:1025A400D7E91623FDF72CFE02460B461346C7F85F
:1025B400B43065E0003802400024F40000127A00D0
:1025C4003D4B5B689B09002218461146C0F3080383
:1025D4003B6500237B65D7E9148942464B464FF09F
:1025E40000004FF00001590141EAD2615001024656
:1025F4000B464146511AB960494663EB0103FB603F
:102604004FF000024FF00003D7E902AB59468B01AB
:10261400514643EA916351468A015146541A594638
:1026240063EB01054FF000024FF00003EB0043EAB7
:102634005473E20014461D464346E3183B604B4680
:1026440045EB03037B604FF000024FF00003D7E932
:10265400004529468B02214643EA915321468A02CA
:1026640010461946D7F8AC300022BB64FA64D7E9A7
:102674001223FDF7C5FD02460B461346C7F8B430D6
:102684000D4B5B681B0F03F00703C7F8A430D7F8A2
:10269400B420D7F8A430B2FBF3F3C7F8B03003E0AA
:1026A400064BC7F8B03000BFD7F8B0301846B8377B
:1026B400BD46BDE8B08F00BF003802400024F400DE
:1026C40080B586B000AF78607B68002B01D1012310
:1026D4008DE27B681B6803F00103002B00F083800C
:1026E400944B9B6803F00C03042B19D0914B9B680B
:1026F40003F00C03082B06D18E4B5B6803F48003B4
:10270400B3F5800F0CD08B4B9B6803F00C030C2BA0
:1027140012D1884B5B6803F48003B3F5800F0BD1AF
:10272400844B1B6803F40033002B5BD07B685B682D
:10273400002B57D101235AE27B685B68B3F5803FD5
:1027440006D17C4B1B687B4A43F4803313601DE045
:102754007B685B68B3F5A02F0CD1764B1B68754A78
:1027640043F480231360734B1B68724A43F4803331
:1027740013600BE06F4B1B686E4A23F480331360C5
:102784006C4B1B686B4A23F4802313607B685B6883
:10279400002B13D0FEF7A2FC386108E0FEF79EFC84
:1027A40002463B69D31A642B01D903231FE2614B10
:1027B4001B6803F40033002BF0D014E0FEF78EFC0A
:1027C400386108E0FEF78AFC02463B69D31A642BA1
:1027D40001D903230BE2574B1B6803F40033002B8E
:1027E400F0D100E000BF7B681B6803F00203002BFC
:1027F4006FD0504B9B6803F00C03002B17D04D4B4C
:102804009B6803F00C03082B05D14A4B5B6803F467
:102814008003002B0BD0474B9B6803F00C030C2B5D
:102824001CD1444B5B6803F48003002B16D1414B4D
:102834001B6803F00203002B05D07B68DB68012BC7
:1028440001D00123D3E13B4B1B6823F0F8027B68E2
:102854001B69DB00374913430B603AE07B68DB6894
:10286400002B20D0344B01221A60FEF737FC38616C
:1028740008E0FEF733FC02463B69D31A022B01D968
:102884000323B4E12B4B1B6803F00203002BF0D0AD
:10289400284B1B6823F0F8027B681B69DB00254981
:1028A40013430B6015E0244B00221A60FEF716FC5C
:1028B400386108E0FEF712FC02463B69D31A022B8A
:1028C40001D9032393E11B4B1B6803F00203002B84
:1028D400F0D17B681B6803F00803002B36D07B68BB
:1028E4005B69002B16D0154B01221A60FEF7F6FB2C
:1028F400386108E0FEF7F2FB02463B69D31A022B6B
:1029040001D9032373E10B4B5B6F03F00203002B2C
:10291400F0D01BE0094B00221A60FEF7DFFB3861A0
:102924000EE0FEF7DBFB02463B69D31A022B07D904
:1029340003235CE10038024000004742800E474216
:102944008A4B5B6F03F00203002BEAD17B681B68A0
:1029540003F00403002B00F097800023FB75834BE6
:102964001B6C03F08053002B0FD10023BB607F4B03
:102974001B6C7E4A43F0805313647C4B1B6C03F046
:102984008053BB60BB680123FB75794B1B6803F460
:102994008073002B18D1764B1B68754A43F48073FF
:1029A4001360FEF79BFB386108E0FEF797FB0246D5
:1029B4003B69D31A022B01D9032318E16C4B1B6822
:1029C40003F48073002BF0D07B689B68012B06D145
:1029D400664B1B6F654A43F0010313671CE07B6879
:1029E4009B68052B0CD1614B1B6F604A43F00403B9
:1029F40013675E4B1B6F5D4A43F0010313670BE0E3
:102A04005A4B1B6F594A23F001031367574B1B6F33
:102A1400564A23F0040313677B689B68002B15D088
:102A2400FEF75CFB38610AE0FEF758FB02463B699F
:102A3400D31A41F28832934201D90323D7E04B4B96
:102A44001B6F03F00203002BEED014E0FEF746FBED
:102A540038610AE0FEF742FB02463B69D31A41F2B1
:102A64008832934201D90323C1E0404B1B6F03F02A
:102A74000203002BEED1FB7D012B05D13B4B1B6CDC
:102A84003A4A23F0805313647B689B69002B00F05F
:102A9400AD80364B9B6803F00C03082B60D07B6839
:102AA4009B69022B45D1334B00221A60FEF716FBBB
:102AB400386108E0FEF712FB02463B69D31A022B89
:102AC40001D9032393E0294B1B6803F00073002B07
:102AD400F0D17B68DA697B681B6A1A437B685B6A9E
:102AE4009B011A437B689B6A5B08013B1B041A43E6
:102AF4007B68DB6A1B061A437B681B6B1B071B493D
:102B040013434B601B4B01221A60FEF7E7FA38614E
:102B140008E0FEF7E3FA02463B69D31A022B01D917
:102B2400032364E0114B1B6803F00073002BF0D007
:102B34005CE0104B00221A60FEF7D0FA386108E01E
:102B4400FEF7CCFA02463B69D31A022B01D90323C0
:102B54004DE0064B1B6803F00073002BF0D145E0F9
:102B64007B689B69012B07D1012340E000380240B8
:102B740000700040600047421F4B5B68FB607B684D
:102B84009B69012B30D0FB6803F480027B68DB690E
:102B94009A4229D1FB6803F03F027B681B6A9A4280
:102BA40022D1FA6847F6C07313407A68526A9201D8
:102BB400934219D1FB6803F440327B689B6A5B083B
:102BC400013B1B049A420FD1FB6803F070627B68DF
:102BD400DB6A1B069A4207D1FB6803F0E0427B687C
:102BE4001B6B1B079A4201D0012300E00023184607
:102BF4001837BD4680BD00BF0038024080B582B0A2
:102C040000AF78607B68002B01D1012341E07B6831
:102C140093F83D30DBB2002B06D17B68002283F8A9
:102C24003C207868FEF780F87B68022283F83D2018
:102C34007B681A687B6804331946104600F0CCFFA1
:102C44007B68012283F846207B68012283F83E20BA
:102C54007B68012283F83F207B68012283F84020AF
:102C64007B68012283F841207B68012283F842209B
:102C74007B68012283F843207B68012283F8442087
:102C84007B68012283F845207B68012283F83D207C
:102C9400002318460837BD4680BD000080B485B0C7
:102CA40000AF78607B6893F83D30DBB2012B01D034
:102CB40001234EE07B68022283F83D207B681B6879
:102CC400DA687B681B6842F00102DA607B681B6883
:102CD400234A934222D07B681B68B3F1804F1DD0F6
:102CE4007B681B681F4A934218D07B681B681E4A86
:102CF400934213D07B681B681C4A93420ED07B68B6
:102D04001B681B4A934209D07B681B68194A93428B
:102D140004D07B681B68184A934211D17B681B68F6
:102D24009B6803F00703FB60FB68062B10D07B68ED
:102D34001B681A687B681B6842F001021A6007E08E
:102D44007B681B681A687B681B6842F001021A6082
:102D5400002318461437BD465DF8047B704700BF56
:102D6400000001400004004000080040000C004046
:102D740000040140004001400018004080B582B0CA
:102D840000AF78607B68002B01D1012341E07B68B0
:102D940093F83D30DBB2002B06D17B68002283F828
:102DA4003C207868FEF730F87B68022283F83D20E7
:102DB4007B681A687B6804331946104600F00CFFE0
:102DC4007B68012283F846207B68012283F83E2039
:102DD4007B68012283F83F207B68012283F840202E
:102DE4007B68012283F841207B68012283F842201A
:102DF4007B68012283F843207B68012283F8442006
:102E04007B68012283F845207B68012283F83D20FA
:102E1400002318460837BD4680BD000080B584B045
:102E240000AF786039603B68002B09D17B6893F868
:102E34003E30DBB2012B14BF01230023DBB222E0BE
:102E44003B68042B09D17B6893F83F30DBB2012B3C
:102E540014BF01230023DBB215E03B68082B09D122
:102E64007B6893F84030DBB2012B14BF01230023AD
:102E7400DBB208E07B6893F84130DBB2012B14BF6E
:102E840001230023DBB2002B01D001237CE03B684B
:102E9400002B04D17B68022283F83E2013E03B68B8
:102EA400042B04D17B68022283F83F200BE03B68AB
:102EB400082B04D17B68022283F8402003E07B685E
:102EC400022283F841207B681B6801223968184676
:102ED40001F078F97B681B682D4A934204D07B6823
:102EE4001B682C4A934201D1012300E00023002BEC
:102EF40007D07B681B685A6C7B681B6842F40042ED
:102F04005A647B681B68224A934222D07B681B6800
:102F1400B3F1804F1DD07B681B681F4A934218D0C1
:102F24007B681B681D4A934213D07B681B681C4A4C
:102F340093420ED07B681B68164A934209D07B6883
:102F44001B68184A934204D07B681B68164A934254
:102F540011D17B681B689B6803F00703FB60FB6867
:102F6400062B10D07B681B681A687B681B6842F0CC
:102F740001021A6007E07B681B681A687B681B689B
:102F840042F001021A60002318461037BD4680BD86
:102F9400000001400004014000040040000800401B
:102FA400000C0040004001400018004080B586B08D
:102FB40000AFF860B9607A607B800023FB75BB6862
:102FC400002B09D1FB6893F83E30DBB2022B0CBF17
:102FD40001230023DBB222E0BB68042B09D1FB6888
:102FE40093F83F30DBB2022B0CBF01230023DBB28A
:102FF40015E0BB68082B09D1FB6893F84030DBB2BD
:10300400022B0CBF01230023DBB208E0FB6893F81A
:103014004130DBB2022B0CBF01230023DBB2002BB7
:1030240001D0022371E1BB68002B09D1FB6893F83E
:103034003E30DBB2012B0CBF01230023DBB222E0C4
:10304400BB68042B09D1FB6893F83F30DBB2012B3A
:103054000CBF01230023DBB215E0BB68082B09D1A8
:10306400FB6893F84030DBB2012B0CBF0123002333
:10307400DBB208E0FB6893F84130DBB2012B0CBFF4
:1030840001230023DBB2002B24D07B68002B02D069
:103094007B88002B01D1012337E1BB68002B04D1CD
:1030A400FB68022283F83E2016E0BB68042B04D19F
:1030B400FB68022283F83F200EE0BB68082B04D192
:1030C400FB68022283F8402006E0FB68022283F8B2
:1030D400412001E0012318E1BB680C2B00F2AE8013
:1030E40001A252F823F000BF213100084132000848
:1030F40041320008413200086931000841320008B9
:103104004132000841320008B13100084132000860
:103114004132000841320008F9310008FB685B6A5B
:103124007C4ADA63FB685B6A7B4A1A64FB685B6A05
:103134007A4ADA64FB68586A7968FB681B68343336
:103144001A467B88FEF7FCFA0346002B01D00123C4
:10315400DBE0FB681B68DA68FB681B6842F40072FA
:10316400DA606EE0FB689B6A6A4ADA63FB689B6A12
:10317400694A1A64FB689B6A684ADA64FB68986A5D
:103184007968FB681B6838331A467B88FEF7D8FADF
:103194000346002B01D00123B7E0FB681B68DA6803
:1031A400FB681B6842F48062DA604AE0FB68DB6A11
:1031B400584ADA63FB68DB6A574A1A64FB68DB6ABD
:1031C400564ADA64FB68D86A7968FB681B683C3342
:1031D4001A467B88FEF7B4FA0346002B01D001237C
:1031E40093E0FB681B68DA68FB681B6842F40062C2
:1031F400DA6026E0FB681B6B464ADA63FB681B6BEC
:10320400454A1A64FB681B6B444ADA64FB68186B12
:103214007968FB681B6840331A467B88FEF790FA8E
:103224000346002B01D001236FE0FB681B68DA68BA
:10323400FB681B6842F48052DA6002E00123FB75EC
:1032440000BFFB7D002B5FD1FB681B680122B968BE
:10325400184600F0B7FFFB681B68314A934204D05C
:10326400FB681B682F4A934201D1012300E000232D
:10327400002B07D0FB681B685A6CFB681B6842F480
:1032840000425A64FB681B68254A934222D0FB68BB
:103294001B68B3F1804F1DD0FB681B68224A934220
:1032A40018D0FB681B68214A934213D0FB681B6843
:1032B4001F4A93420ED0FB681B681A4A934209D0F6
:1032C400FB681B681B4A934204D0FB681B681A4ABC
:1032D400934211D1FB681B689B6803F007033B61B1
:1032E4003B69062B10D0FB681B681A68FB681B68D7
:1032F40042F001021A6007E0FB681B681A68FB6869
:103304001B6842F001021A60FB7D18461837BD465F
:1033140080BD00BFCD3A0008753B00083B3A000869
:103324000000014000040140000400400008004087
:10333400000C0040004001400018004080B584B0FB
:1033440000AF786039600023FB733B680C2B55D8C1
:1033540001A252F823F000BF9133000801340008A1
:103364000134000801340008AD33000801340008BA
:103374000134000801340008C9330008013400088E
:103384000134000801340008E53300087B681B6839
:10339400DA687B681B6822F40072DA607B685B6A17
:1033A4001846FEF725FA2CE07B681B68DA687B6810
:1033B4001B6822F48062DA607B689B6A1846FEF719
:1033C40017FA1EE07B681B68DA687B681B6822F4C6
:1033D4000062DA607B68DB6A1846FEF709FA10E0DF
:1033E4007B681B68DA687B681B6822F48052DA60A9
:1033F4007B681B6B1846FEF7FBF902E00123FB73A5
:1034040000BFFB7B002B61D17B681B6800223968FD
:10341400184600F0D7FE7B681B682F4A934204D0FD
:103424007B681B682D4A934201D1012300E00023ED
:10343400002B17D07B681B681A6A41F211131340E2
:10344400002B0FD17B681B681A6A40F24443134077
:10345400002B07D17B681B685A6C7B681B6822F4BD
:1034640000425A647B681B681A6A41F211131340C4
:10347400002B0FD17B681B681A6A40F24443134047
:10348400002B07D17B681B681A687B681B6822F0D5
:1034940001021A603B68002B04D17B68012283F887
:1034A4003E2013E03B68042B04D17B68012283F89F
:1034B4003F200BE03B68082B04D17B68012283F892
:1034C400402003E07B68012283F84120FB7B1846FF
:1034D4001037BD4680BD00BF00000140000401401C
:1034E40080B584B000AF78607B681B68DB68FB60E4
:1034F4007B681B681B69BB60BB6803F00203002B7D
:1035040020D0FB6803F00203002B1BD07B681B68F0
:103514006FF002021A617B6801221A777B681B68CC
:103524009B6903F00303002B03D0786800F05BFA77
:1035340005E0786800F04DFA7868FCF7D9FF7B68FD
:1035440000221A77BB6803F00403002B20D0FB6829
:1035540003F00403002B1BD07B681B686FF004028C
:103564001A617B6802221A777B681B689B6903F4E3
:103574004073002B03D0786800F035FA05E07868D2
:1035840000F027FA7868FCF7B3FF7B6800221A770B
:10359400BB6803F00803002B20D0FB6803F008038A
:1035A400002B1BD07B681B686FF008021A617B68D4
:1035B40004221A777B681B68DB6903F00303002B82
:1035C40003D0786800F00FFA05E0786800F001FA9B
:1035D4007868FCF78DFF7B6800221A77BB6803F0DC
:1035E4001003002B20D0FB6803F01003002B1BD02A
:1035F4007B681B686FF010021A617B6808221A77D7
:103604007B681B68DB6903F44073002B03D0786884
:1036140000F0E9F905E0786800F0DBF97868FCF778
:1036240067FF7B6800221A77BB6803F00103002B55
:103634000CD0FB6803F00103002B07D07B681B68E8
:103644006FF001021A617868FCF75EFFBB6803F053
:103654008003002B0CD0FB6803F08003002B07D001
:103664007B681B686FF080021A61786800F056FE70
:10367400BB6803F04003002B0CD0FB6803F040034D
:10368400002B07D07B681B686FF040021A617868D2
:1036940000F0BDF9BB6803F02003002B0CD0FB68DD
:1036A40003F02003002B07D07B681B686FF0200217
:1036B4001A61786800F028FE00BF1037BD4680BD4F
:1036C40080B586B000AFF860B9607A600023FB75FE
:1036D400FB6893F83C30012B01D10223AEE0FB6878
:1036E400012283F83C207B680C2B00F29F8001A20E
:1036F40052F823F02D37000831380008313800081B
:10370400313800086D3700083138000831380008B6
:1037140031380008AF370008313800083138000864
:1037240031380008EF370008FB681B68B968184691
:1037340000F0FEFAFB681B689A69FB681B6842F09C
:1037440008029A61FB681B689A69FB681B6822F08F
:1037540004029A61FB681B689969BB681A69FB6873
:103764001B680A439A6164E0FB681B68B9681846E1
:1037740000F04EFBFB681B689A69FB681B6842F407
:1037840000629A61FB681B689A69FB681B6822F4F3
:1037940080629A61FB681B689969BB681B691A029D
:1037A400FB681B680A439A6143E0FB681B68B968BD
:1037B400184600F0A3FBFB681B68DA69FB681B680A
:1037C40042F00802DA61FB681B68DA69FB681B686F
:1037D40022F00402DA61FB681B68D969BB681A69C4
:1037E400FB681B680A43DA6123E0FB681B68B9685D
:1037F400184600F0F7FBFB681B68DA69FB681B6876
:1038040042F40062DA61FB681B68DA69FB681B68D2
:1038140022F48062DA61FB681B68D969BB681B69A2
:103824001A02FB681B680A43DA6102E00123FB7594
:1038340000BFFB68002283F83C20FB7D1846183744
:10384400BD4680BD80B584B000AF78603960002388
:10385400FB737B6893F83C30012B01D10223B4E065
:103864007B68012283F83C207B68022283F83D2098
:103874007B681B689B68BB60BB6823F07703BB60F5
:10388400BB6823F47F43BB607B681B68BA689A609B
:103894003B681B68B3F5005F3ED0B3F5005F00F2F0
:1038A4008780B3F5805F00F08680B3F5805F7FD8B2
:1038B400702B1AD0702B7BD8602B50D0602B77D80C
:1038C400502B3CD0502B73D8402B58D0402B6FD862
:1038D400302B64D0302B6BD8202B60D0202B67D8B2
:1038E400002B5CD0102B5AD062E07B6818683B68D0
:1038F40099683B685A683B68DB6800F043FC7B6866
:103904001B689B68BB60BB6843F07703BB607B6844
:103914001B68BA689A604FE07B6818683B689968CE
:103924003B685A683B68DB6800F02CFC7B681B68CA
:103934009A687B681B6842F480429A603CE07B682A
:1039440018683B6859683B68DB681A4600F0A0FBBE
:103954007B681B685021184600F0F9FB2CE07B685B
:1039640018683B6859683B68DB681A4600F0BFFB7F
:103974007B681B686021184600F0E9FB1CE07B684B
:1039840018683B6859683B68DB681A4600F080FB9E
:103994007B681B684021184600F0D9FB0CE07B686B
:1039A4001A683B681B681946104600F0D0FB03E018
:1039B4000123FB7300E000BF7B68012283F83D20F4
:1039C4007B68002283F83C20FB7B18461037BD46F9
:1039D40080BD80B483B000AF786000BF0C37BD46B3
:1039E4005DF8047B704780B483B000AF786000BF9B
:1039F4000C37BD465DF8047B704780B483B000AFDC
:103A0400786000BF0C37BD465DF8047B704780B416
:103A140083B000AF786000BF0C37BD465DF8047B0F
:103A2400704780B483B000AF786000BF0C37BD46E8
:103A34005DF8047B704780B584B000AF78607B6824
:103A44009B6BFB60FB685B6A7A689A4207D1FB68F0
:103A540001221A77FB68012283F83E202AE0FB68E2
:103A64009B6A7A689A4207D1FB6802221A77FB683C
:103A7400012283F83F201DE0FB68DB6A7A689A42E2
:103A840007D1FB6804221A77FB68012283F84020DF
:103A940010E0FB681B6B7A689A4207D1FB68082226
:103AA4001A77FB68012283F8412003E0FB680122B6
:103AB40083F83D20F868FFF7B4FFFB6800221A770B
:103AC40000BF1037BD4680BD80B584B000AF7860BC
:103AD4007B689B6BFB60FB685B6A7A689A420BD1DC
:103AE400FB6801221A777B68DB69002B36D1FB68FF
:103AF400012283F83E2031E0FB689B6A7A689A428F
:103B04000BD1FB6802221A777B68DB69002B25D175
:103B1400FB68012283F83F2020E0FB68DB6A7A68B7
:103B24009A420BD1FB6804221A777B68DB69002B6D
:103B340014D1FB68012283F840200FE0FB681B6B63
:103B44007A689A420AD1FB6808221A777B68DB6993
:103B5400002B03D1FB68012283F84120F868FCF7AD
:103B6400C7FCFB6800221A7700BF1037BD4680BD32
:103B740080B584B000AF78607B689B6BFB60FB68AA
:103B84005B6A7A689A4203D1FB6801221A7719E0CA
:103B9400FB689B6A7A689A4203D1FB6802221A770F
:103BA40010E0FB68DB6A7A689A4203D1FB6804225E
:103BB4001A7707E0FB681B6B7A689A4202D1FB68AC
:103BC40008221A77F868FFF718FFFB6800221A77B3
:103BD40000BF1037BD4680BD80B485B000AF7860AB
:103BE40039607B681B68FB607B68464A934213D04C
:103BF4007B68B3F1804F0FD07B68434A93420BD06C
:103C04007B68424A934207D07B68414A934203D07F
:103C14007B68404A934208D1FB6823F07003FB6041
:103C24003B685B68FA681343FB607B68354A9342E0
:103C34002BD07B68B3F1804F27D07B68324A934204
:103C440023D07B68314A93421FD07B68304A934229
:103C54001BD07B682F4A934217D07B682E4A93422D
:103C640013D07B682D4A93420FD07B682C4A934231
:103C74000BD07B682B4A934207D07B682A4A934235
:103C840003D07B68294A934208D1FB6823F440732C
:103C9400FB603B68DB68FA681343FB60FB6823F056
:103CA40080023B685B691343FB607B68FA681A60B7
:103CB4003B689A687B68DA623B681A687B689A6238
:103CC4007B68104A934203D07B68124A934203D123
:103CD4003B681A697B681A637B6801225A617B68B6
:103CE4001B6903F00103012B05D17B681B6923F0D9
:103CF40001027B681A6100BF1437BD465DF8047B7E
:103D0400704700BF0000014000040040000800406C
:103D1400000C004000040140004001400044014008
:103D24000048014000180040001C004000200040F2
:103D340080B487B000AF786039607B681B6A7B61B0
:103D44007B681B6A23F001027B681A627B685B68EC
:103D54003B617B689B69FB60FB6823F07003FB603D
:103D6400FB6823F00303FB603B681B68FA6813439A
:103D7400FB607B6923F002037B613B689B687A6983
:103D840013437B617B68204A934203D07B681F4ABC
:103D940093420CD17B6923F008037B613B68DB68A9
:103DA4007A6913437B617B6923F004037B617B683D
:103DB400154A934203D07B68144A934211D13B695C
:103DC40023F480733B613B6923F400733B613B68DC
:103DD4005B693A6913433B613B689B693A691343E6
:103DE4003B617B683A695A607B68FA689A613B6810
:103DF4005A687B685A637B687A691A6200BF1C3709
:103E0400BD465DF8047B704700000140000401409A
:103E140080B487B000AF786039607B681B6A7B61CF
:103E24007B681B6A23F010027B681A627B685B68FC
:103E34003B617B689B69FB60FB6823F4E043FB60A8
:103E4400FB6823F44073FB603B681B681B02FA6841
:103E54001343FB607B6923F020037B613B689B6811
:103E64001B017A6913437B617B68224A934203D026
:103E74007B68214A93420DD17B6923F080037B61E7
:103E84003B68DB681B017A6913437B617B6923F020
:103E940040037B617B68174A934203D07B68164AD0
:103EA400934213D13B6923F480633B613B6923F460
:103EB40000633B613B685B699B003A6913433B6168
:103EC4003B689B699B003A6913433B617B683A6991
:103ED4005A607B68FA689A613B685A687B689A639F
:103EE4007B687A691A6200BF1C37BD465DF8047BA3
:103EF400704700BF000001400004014080B487B057
:103F040000AF786039607B681B6A7B617B681B6AE1
:103F140023F480727B681A627B685B683B617B6810
:103F2400DB69FB60FB6823F07003FB60FB6823F034
:103F34000303FB603B681B68FA681343FB607B69FF
:103F440023F400737B613B689B681B027A6913430B
:103F54007B617B68214A934203D07B68204A934269
:103F64000DD17B6923F400637B613B68DB681B0232
:103F74007A6913437B617B6923F480637B617B688B
:103F8400164A934203D07B68154A934213D13B6986
:103F940023F480533B613B6923F400533B613B684A
:103FA4005B691B013A6913433B613B689B691B01D5
:103FB4003A6913433B617B683A695A607B68FA68E3
:103FC400DA613B685A687B68DA637B687A691A62EB
:103FD40000BF1C37BD465DF8047B704700000140FC
:103FE4000004014080B487B000AF786039607B681A
:103FF4001B6A3B617B681B6A23F480527B681A62EC
:104004007B685B687B617B68DB69FB60FB6823F42E
:10401400E043FB60FB6823F44073FB603B681B6870
:104024001B02FA681343FB603B6923F400533B61B2
:104034003B689B681B033A6913433B617B68124AE4
:10404400934203D07B68114A934209D17B6923F4DC
:1040540080437B613B685B699B017A6913437B61A5
:104064007B687A695A607B68FA68DA613B685A68E7
:104074007B681A647B683A691A6200BF1C37BD46C4
:104084005DF8047B704700BF00000140000401405C
:1040940080B487B000AFF860B9607A60FB681B6ACF
:1040A4007B61FB681B6A23F00102FB681A62FB68F0
:1040B4009B693B613B6923F0F0033B617B681B0117
:1040C4003A6913433B617B6923F00A037B617A6994
:1040D400BB6813437B61FB683A699A61FB687A6940
:1040E4001A6200BF1C37BD465DF8047B704780B47C
:1040F40087B000AFF860B9607A60FB681B6A7B61C7
:10410400FB681B6A23F01002FB681A62FB689B6958
:104114003B613B6923F470433B617B681B033A6951
:1041240013433B617B6923F0A0037B61BB681B01E4
:104134007A6913437B61FB683A699A61FB687A691F
:104144001A6200BF1C37BD465DF8047B704780B41B
:1041540085B000AF786039607B689B68FB60FB6862
:1041640023F07003FB603A68FB68134343F00703D2
:10417400FB607B68FA689A6000BF1437BD465DF83F
:10418400047B704780B487B000AFF860B9607A6090
:104194003B60FB689B687B617B6923F47F437B61A5
:1041A4003B681A027B681A43BB6813437A6913435A
:1041B4007B61FB687A699A6000BF1C37BD465DF875
:1041C400047B704780B487B000AFF860B9607A6050
:1041D400BB6803F01F03012202FA03F37B61FB684F
:1041E4001A6A7B69DB431A40FB681A62FB681A6A25
:1041F400BB6803F01F03796801FA03F31A43FB68F1
:104204001A6200BF1C37BD465DF8047B704700008E
:1042140080B485B000AF786039607B6893F83C3037
:10422400012B01D102235AE07B68012283F83C2050
:104234007B68022283F83D207B681B685B68FB6017
:104244007B681B689B68BB60FB6823F07003FB60A2
:104254003B681B68FA681343FB607B681B68FA6859
:104264005A607B681B68214A934222D07B681B6892
:10427400B3F1804F1DD07B681B681D4A934218D050
:104284007B681B681B4A934213D07B681B681A4ADD
:1042940093420ED07B681B68184A934209D07B680E
:1042A4001B68174A934204D07B681B68154A9342E3
:1042B4000CD1BB6823F08003BB603B685B68BA68C1
:1042C4001343BB607B681B68BA689A607B680122F1
:1042D40083F83D207B68002283F83C2000231846A5
:1042E4001437BD465DF8047B704700BF00000140F1
:1042F4000004004000080040000C0040000401409D
:10430400004001400018004080B483B000AF7860E2
:1043140000BF0C37BD465DF8047B704780B483B0A2
:1043240000AF786000BF0C37BD465DF8047B704772
:1043340002440346934200D1704703F8011BF9E796
:1043440070B50D4D0D4C641BA4100026A64209D176
:104354000B4D0C4C00F018F8641BA4100026A64268
:1043640005D170BD55F8043B98470136EEE755F882
:10437400043B98470136F2E7C4430008C4430008ED
:10438400C4430008C8430008F8B500BFF8BC08BC23
:104394009E467047F8B500BFF8BC08BC9E467047FF
:1043A40000000000000000000102030406070809E1
:0843B4000006101600061016A9
:0843BC0078BEFF7F0100000044
:0443C400E901000803
:0443C800C501000823
:1043CC0080807F807F807F807F807F807F7F7F7EEB
:1043DC007F7E7F7E7F7E7F7F7F7F7F7F7F7F7F7FE4
:1043EC007F7F7F7F7F7E7F7F7E7F7E7F7E7F7E7FD6
:1043FC007F7E7F7E7F7E7F7E7F7E7F7E7F7E807FC7
:10440C00807F807F8080807F807F80807F80807FA6
:10441C00807F80807F807F807F807F808081808193
:10442C00818180807F807F807F7F7F7E7F7E7F7E8B
:10443C007F7E7E7D7E7E7D7E7D7E7E7D7E7E7D7E94
:10444C007D7E7D7E7D7E7E7D7E7D7E7D7E7E7F7E85
:10445C007F7F80818180818081808180818180814A
:10446C008081808181818081808180818180818037
:10447C00818182818282808180807F7F7E7F7E7F2E
:10448C007D7E7E7E7E7D7E7E7D7E7D7D7E7D7E7E46
:10449C007E7D7E7D7E7D7E7D7D7C7D7C7D7D7D7C3F
:1044AC007D7C7D7C7D7D7C7D7D808081808181811A
:1044BC008080807F7F7F807F8180818080818181EF
:1044CC0081818281828182818281838282828383C3
:1044DC00828180807F7F7F7F7F7F7F7E7E7E7D7DE0
:1044EC007C7B7D7C7D7C7D7D7B7C7C7D7D7D7E7CF9
:1044FC007D7C7D7C7D7C7D7C7D7C7D7E7E7F7F82DA
:10450C008283828283828382838283828382838278
:10451C008281828182818281828182828283838371
:10452C008283818280817F7F7E7D7D7D7D7D7C7C91
:10453C007B7D7B7B7A7C7B7B7A7C7B7B7A7B7A7BBF
:10454C007A7D7C7D7B7C7B7B7A7B7B7A7B7A7B7AAE
:10455C007B7B7C7D7E7F8182838384838483848345
:10456C008483848384848283828281828182818217
:10457C008281828284838380828384838583828008
:10458C00817F7E7D7C7A7C7A7A7B7A7A7B797B7B65
:10459C007A7B7B7A7B797A7B7A7B7A7B7B7A7C7B66
:1045AC007D7C7D7B7D7C7D7C7D7C7E7E818184851C
:1045BC0084858485848584858485848485848585A7
:1045CC008485848485848583858385858585848499
:1045DC008283817F7F7D7D7D7C7B7D7A7B7B7B7CF9
:1045EC00797A797B797A797A7A7A7A7A7A797A7924
:1045FC007A7A7979787A797978797879797A78791F
:10460C00787A7A7D7E818285858586858686858683
:10461C008686858685868586858685868586868535
:10462C00868586868586858686848483828081803D
:10463C007F7E7C7C7C7B79797879787978787978CD
:10464C0079797879787978797879787978797B7ECD
:10465C007B7C7F7C7C7A7B7C7D7C7E7F808384866C
:10466C0085878685868586858685868687868785E1
:10467C0086868686858685868587868787858583D3
:10468C008282827E7E7D7E7C7B79787B7C7878775B
:10469C0079787778787778777878787A7B7B7A7B83
:1046AC007A79787778777877787778777877787980
:1046BC007B7E8083838686878687868787868786A8
:1046CC008784848481807E807F80808181838586BD
:1046DC00878687878687868784848180817F7F7B96
:1046EC007A7B7C7A7877787A7777787977787A7931
:1046FC0078797E7D7E7C7E7D7D7C7D7E7E7B7C7DE7
:10470C007D7C7B7C7D808083848788878888878874
:10471C008887888788888788888587868483848427
:10472C0083838282848687848484858181807C7D56
:10473C0079777779787A7777797A7A7876767876EE
:10474C0077767776777776777777777777767777F1
:10475C007776787677777677767776797A7D7E82C4
:10476C0084878787888789888788888988898987C3
:10477C0088898889878889878787858787898889B1
:10478C008889888886868480807E7D7A797677751C
:10479C0076757676757676757675767576767577B2
:1047AC0077797779777877797A7A7A7B7A7B79796E
:1047BC007A797D7F828485898988898889888988A6
:1047CC008988898889898888888788878786878760
:1047DC00858687868788898887848582817F7B7A8E
:1047EC0078787676767575767675757A79797B754F
:1047FC00767576757575797C7B7979797877747639
:10480C0075767576757675757575777D8085868701
:10481C008788888988898988898A88898280807E26
:10482C007D7B7D7F7F80828182858A898A898A8946
:10483C008A8A8887817C7E7D7E7C797D7F7F7F7D67
:10484C0080848482848281817E7D7B7C7E83838153
:10485C00807F7D7D7B7D7A79787778777778797CA6
:10486C007E818284898787888A898A898A8A898ACB
:10487C00898A8A8985827D7B7B797A7B7B7B808325
:10488C008586898A89898785837F7A74757475741E
:10489C007574767D807874747878757A7E817C797D
:1048AC007878777C828380807C7C7A7A79797A7B41
:1048BC007C7C7E7E7F8182868485878988878989B6
:1048CC008B87817C7B7C808887868685847D7779C5
:1048DC00787575757777777C7F807E7D797775783D
:1048EC0075747475767579777A797A79797778764B
:1048FC007576767678787A7A7C7F858683838283E0
:10490C008587868A8A8B8A8B8A8883878B88828024
:10491C00848487898B8A8B8B8A8B8A8B8A8B8B88F6
:10492C008382827F7F7F7F807F8186878384858659
:10493C00848382817C7B7A7D7A75777B7E7A777CA7
:10494C008180807D7E7D7A757573737473747373D7
:10495C007473747375797B7E81838280817F7C779D
:10496C0074737473757376797B7C7F848580868988
:10497C008883868A8C8A8B8C8A878A8C8B8B8A8B91
:10498C008885807F7D7A84867A797A7A7B7B818729
:10499C00888587878884827C7C7A7A7E7F7C7A760D
:1049AC00737273737273747275797C7F8384828271
:1049BC008080807F7F7E767476767979797E848428
:1049CC007F7D7F84807E848786848A8A8485898D96
:1049DC0088868481807E7F7E7E7E7F8283868688A9
:1049EC00888A8B8B8C8B8C8C8B8C8B8C8B8C8B8C08
:1049FC008C8887857E7A79797979787877788083CD
:104A0C00848081828383827E7C7B797773737273DB
:104A1C0072737273727372747779797A797A7A792C
:104A2C007A7A7A7A7B7B7A7C7774747676797779F2
:104A3C00787777797D8186898D8B8C8B8C8C8B8C20
:104A4C008B8D8B8C8C8C8C8C8B8D888585868586C0
:104A5C008586858A8C8C8B8C8B8C8C898985837EC6
:104A6C007C797873727373717372727372727378F8
:104A7C007C7E7F807F7F7F7C7C7A7A7A7472727383
:104A8C007273727372727173727475797F868688A1
:104A9C008B8D8C8D8D8C8C89858A8D8A8887847F73
:104AAC007A7A7A7B7E7E807F82878B8C8C8B8C8BC8
:104ABC008C8C8B8A827E7D7C7B7473767975737318
:104ACC0074777473777B7A7C7F7D7B818787868410
:104ADC0083827E7A76747273727272717272757668
:104AEC00798085858A8A8A8C8A8C8C8C8A8B8A8838
:104AFC00898888847F78777674757477787D8288D6
:104B0C00898D8C8A88888686847E7C7D7E7D79786A
:104B1C00797B7B7A77797E7C7A7D7D7D7D7E7E7CD0
:104B2C007D838D8D8B8C8C8D8B86807D7C7A7C7D32
:104B3C007F7F8082828484878A8D8D8C8C8A868408
:104B4C00848786878786838282807F77737272736D
:104B5C00727475797A7D7F83838584807F7D7A7981
:104B6C007777757573727372727271737271727109
:104B7C0072737676797C7D7D838585848685868443
:104B8C0083807F7F7F7F7E7F7D7C7D808386888B0B
:104B9C008D8C8D8C8C8D8C8D8C8D8D8C8D8D8C8D40
:104BAC008C8C88807F7D7C7E7D7E7E8183868788D1
:104BBC00888888878584807E7A7B78777472717216
:104BCC0072727172717272717272727271727275BA
:104BDC007B7E7F7E7F807E7B797779787A7A7B7B10
:104BEC007D7B7D818284868A8D8B8D8D8C8D8C8D49
:104BFC008C8D8D8C8D8D8C8C8C8C89878786868505
:104C0C008584848585888787858582807E7C7C7970
:104C1C00747271727172727172717272727371726A
:104C2C007172717271727172717779777876777639
:104C3C00757172717272737675797A7C7A7C7F86F3
:104C4C0086827F807F808285898D8C8C8D8C8D8CEB
:104C5C008C8A898583858384848688878B8C8D8CCC
:104C6C008D8C8D8D8C8D8C8C8786848482807D7FC1
:104C7C00807F817F7D7E807D7B7C7A7A7A787A7C5E
:104C8C007E7E8283818381807D7A78767674757559
:104C9C0074717272747578777978787C828488886C
:104CAC008B8A8B89888686838381807E7E7D7B7AC6
:104CBC007B7B7E7F818486878A8A8B8B8A8A888895
:104CCC0085838382817F7F7D7E7E7F80807F7E81D6
:104CDC007F808081807F7E7D7F7F7E8183828182C9
:104CEC007F7D7A7978777776787878767775767637
:104CFC0078797A78797A7A7B7A7B7B7C7C7B7A7A06
:104D0C0079797A7B79757172717271757B80818119
:104D1C007F7F7E7F7E7D7C76737175767A7E8183D4
:104D2C00838685878687848383848386878989891C
:104D3C0089888989898A8B8C8C8C8D8C8D8B8D8CB8
:104D4C008B88878584838180808182838485878812
:104D5C008A8889898989888686838381817F7F7FF8
:104D6C007D7D7B7C7B7B7A7B7A7B7B7A7B797A798A
:104D7C0079777576757676757677777778777876BE
:104D8C0077777575747372737273737575777A7DC3
:104D9C007E818081817F7F7F7E7E7B7C7C7D7F7F1F
:104DAC0081838386878A8B8C8C8B8C8B8C8B8C8B66
:104DBC008C8B8C8B8C8B8B8A87878685868585855F
:104DCC008483838282807F7D7B7877767576757419
:104DDC007675767577777675757472737273727380
:104DEC00727575767473747575787876727373756D
:104DFC00787A7D7E817F7F7F7E80818184848687A7
:104E0C008B8C8B8C8B8C8C8C8B8C8B8C8B8C8C8BDD
:104E1C008C8B8B8C8B8C8A8A8888898788878685F3
:104E2C0085848583838282817F807E807F7E7E7D68
:104E3C007D7B7A7977767474737273727373727311
:104E4C00737675777576747472737372737273721A
:104E5C007372757678797C7D7D7F7F80818082828C
:104E6C00848385868688878989898A8888878987C3
:104E7C008888898889888A8A898B8B8C8B8C8A8B89
:104E8C008A898988888787858582827F7E7C7979E3
:104E9C00777776777677787779797A797A79787788
:104EAC0075747372737372737373737374767874BB
:104EBC00737474767B7D81818280807D7D7D7F8122
:104ECC00817D7C7C7C7E7F828587878786878687B1
:104EDC0088888A8A8B8A8B8B8A8B8B8A8B8B8A8B22
:104EEC008A8787868586848584838280807F80807C
:104EFC00807F80807F7F7E7E7D7C7B797A787A79DB
:104F0C007B7A7C7A7B7A7B7A7B7A7B7B797A797AEF
:104F1C007A797A797A7A7B7B7C7A7B7979787777EC
:104F2C007677767576767777797B7C7C7E7E7F7FDD
:104F3C008181818181808181828182818281828251
:104F4C0083828483858585878687868887888788FA
:104F5C0087888887888788888788888987888687CC
:104F6C008685868485848483838282818280818005
:104F7C007E7E7B7B7A7878767674757575747475AD
:104F8C007474777A797774747575787A7C7B7A77A0
:104F9C00767475747677767575747575787B7D7F98
:104FAC007F7F7E7F7E7F80818181808282848483EB
:104FBC008585858686858685868688888A898A8978
:104FCC008A898A898A898A8889878786868484835C
:104FDC00818280818182828281818081807F807FB9
:104FEC007F7E7E7C7C7B7979787877787877787718
:104FFC007776777677767776777677767877797A35
:10500C007A7C7B7D7D7D7F7E8080808181828283A6
:10501C00848486858786888889898A8A898A898A08
:10502C00888988888887888786858584858584840F
:10503C00838383828180807E7E7C7C7B7B7A787983
:10504C0077787777767776777675767576767576F0
:10505C00767576757675767578797A7775767576E0
:10506C00787B7F7E7E7C7C7C7D7E7F8180807D7E5C
:10507C007E818285878988898889878887868786C3
:10508C008786888889898889888988898889898890
:10509C0088878687858584828280808180817F80D5
:1050AC007E7F7D7D7C7B7B797A7A7A797A797B7A43
:1050BC007C7B7C7C7D7C7E7D7C7D7B7C7C7A7B7A26
:1050CC007B7B7C7C7D7E7D7E7F7E7F7E807F7E7FFA
:1050DC007D7E7C7D7D7C7E7D7F7E7F7F807F8180E1
:1050EC008281838382838382828282818280818196
:1050FC008081808281828182808181808180818097
:10510C007F807E7F7F7F8080818081817F807F7F99
:10511C007F7E7E7D7D7C7C7B7C7B7D7C7D7C7C7BBB
:10512C007C7B7C7B7C7A7A7978777678777A7D7DD4
:10513C007A787677777B7D7F7F7F7E7E7D7D7C7DA9
:10514C007C7E7C7C7A7B7C7D808184848685848358
:10515C008382838383848384838584858685878601
:10516C0087868786868786878786878684858384D5
:10517C008483848384838283828182818180808002
:10518C007E7F7E7E7D7E7D7D7C7C7B7C7B7C7B7C48
:10519C007A7B7A7A797A7978797878777877797876
:1051AC007978797879797978787879787979797A68
:1051BC007A7B7C7B7D7D7E7F8080808181828183F8
:1051CC00828382848384838585848685868586858F
:1051DC00868586858685858685868586868685856B
:1051EC0085838483838283818180807E7E7D7E7CA7
:1051FC007D7B7C7B7A7B7A7B7A7A79797978797802
:10520C007979787A797879787978797B7D7C7D7CF5
:10521C007C7B7C7C7D7D7D7D7C7C7B7D7D808083AF
:10522C008484858384838484838585858484838432
:10523C00838584858485838484848584858485831F
:10524C0084828181817F807F7F7E7E7D7E7D7E7D5D
:10525C007F7D7E7D7E7C7D7C7C7C7C7B7C7A7B7B7D
:10526C007C7C7B7D7C7D7D7C7D7C7D7C7D7C7D7C6C
:10527C007D7E7D7E7D7F7E7F7F7F807F807F808037
:10528C00808180817F808081818081818283828303
:10529C0084838483848383848283838182828181D7
:1052AC00808181808282828282818181807F7F7EE7
:1052BC007E7D7E7D7E7E7E7D7E7D7E7E7D7E7D7E08
:1052CC007E7C7D7C7D7C7D7D7C7D7C7D7C7C7B7C0B
:1052DC007B7C7C7D7C7D7D7E7C7C7A7B7B7C7C7E00
:1052EC007E7F7F7E7F7F7E7F7E7F7E7F7E7E7E7ECB
:1052FC007E7E7F7F807F807F807F818081808081A8
:10530C008081808180818181808180818081828186
:10531C008281838282818281828281828280818069
:10532C008180818081808180818180807F80807F6D
:10533C00807E7F7F7E7F7F7E7F7E7F7E7F7E7F7E77
:10534C007F7E7E7D7D7E7D7E7D7E7D7D7C7D7C7D7C
:10535C007D7E7D7E7D7E7D7E7E7E7E7E7D7E7D7E67
:10536C007E7E7F7E7F7F7F807F7F807F818080813C
:10537C008081818180818081818182828282818110
:10538C0081818081808180818180807F807F807F0E
:10539C0080807F7F7E7E7F7E7E7F7E7E7D7E7D7E1B
:1053AC007D7E7D7E7D7E7D7E7E7D7E7D7E7E7C7D1A
:1053BC007C7D7D7E7E7E7D7E7E7D7E7E7E7F7E7F05
:1053CC007E7F7F7E7F7E807F7F807F807F807F80DF
:1053DC007F818081818081808180818180818081B9
:1053EC0081808180818180818180818180807F80AA
:1053FC008080807F807F807F807F7F7F7F7F7F7FAB
:10540C007F7F7E7F7E7F7E7F7E7F7E7F7E7F7E7FA7
:10541C007E7F7E7E7F7E7F7E7F7F7F7F7F7E7F7F96
:10542C007F7F7E7F7E7F7F7E7F7E7F7E7F7F808083
:10543C007F807F80808080807F808080807F807F65
:10544C00807F807F808080807F807F808080808054
:10545C007F807F807F807F808080807F807E7F7F49
:10546C007E7F7E7F7E7F7F7F7E7F7F7E7F7F7F00C4
:0C547C000024F4001000000001000000FB
:0400000508000FC11F
:00000001FF
